{
  "abi": [
    {
      "anonymous": false,
      "inputs": [
        {
          "indexed": false,
          "internalType": "uint256",
          "name": "cntr",
          "type": "uint256"
        }
      ],
      "name": "pong",
      "type": "event"
    },
    {
      "anonymous": false,
      "inputs": [
        {
          "indexed": false,
          "internalType": "uint256",
          "name": "id",
          "type": "uint256"
        },
        {
          "indexed": false,
          "internalType": "address",
          "name": "addr",
          "type": "address"
        }
      ],
      "name": "poolDeploy",
      "type": "event"
    },
    {
      "inputs": [
        {
          "internalType": "string",
          "name": "poolName",
          "type": "string"
        },
        {
          "internalType": "string",
          "name": "poolTicker",
          "type": "string"
        },
        {
          "internalType": "address[]",
          "name": "tokens",
          "type": "address[]"
        },
        {
          "internalType": "string[]",
          "name": "tokenNames",
          "type": "string[]"
        },
        {
          "internalType": "uint256",
          "name": "sigma",
          "type": "uint256"
        },
        {
          "internalType": "uint256",
          "name": "eta",
          "type": "uint256"
        }
      ],
      "name": "newPool",
      "outputs": [
        {
          "internalType": "address",
          "name": "poolAddr",
          "type": "address"
        }
      ],
      "stateMutability": "nonpayable",
      "type": "function"
    },
    {
      "inputs": [],
      "name": "ping",
      "outputs": [],
      "stateMutability": "nonpayable",
      "type": "function"
    }
  ],
  "bytecode": {
    "object": "0x608060405260008055600060015534801561001957600080fd5b5061400e806100296000396000f3fe60806040523480156200001157600080fd5b50600436106200003a5760003560e01c80635c36b186146200003f5780635e8f4282146200004b575b600080fd5b620000496200007e565b005b620000626200005c36600462000644565b620000cf565b6040516001600160a01b03909116815260200160405180910390f35b600160008082825462000092919062000726565b90915550506000546040519081527f13ceedb71b8982257b43e529ceb700c6be8bd505b28bf54876c23455c3139c7c9060200160405180910390a1565b6000805b85518110156200025f5760005b86518110156200020d57868181518110620000ff57620000ff62000741565b60200260200101516001600160a01b031687838151811062000125576200012562000741565b60200260200101516001600160a01b031614620001f85786818151811062000151576200015162000741565b60200260200101516001600160a01b031687838151811062000177576200017762000741565b60200260200101516001600160a01b031603620001f85760405162461bcd60e51b815260206004820152603560248201527f43616e6e6f7420637265617465206120706f6f6c20776974682074776f206964604482015274656e746963616c20746f6b656e7320696e2069742160581b606482015260840160405180910390fd5b80620002048162000757565b915050620000e0565b5060006001600160a01b03168682815181106200022e576200022e62000741565b60200260200101516001600160a01b0316036200024a57600080fd5b80620002568162000757565b915050620000d3565b506000600154888887898a5189896040516200027b90620003b9565b6200028e98979695949392919062000809565b604051809103906000f080158015620002ab573d6000803e3d6000fd5b509050620002dc60405180606001604052806000815260200160006001600160a01b03168152602001606081525090565b600180548083526001600160a01b03848116602080860191825260408087018d8152600095865260028084529190952087518155925195830180546001600160a01b03191696909416959095179092559151805185946200034393908501920190620003c7565b50506001805491506000620003588362000757565b9091555050805160208201516040517f2183978fbd93f951227b57e9a573e11fc9d213afe0f7838f94059a6166e9d58492620003a5929082526001600160a01b0316602082015260400190565b60405180910390a150979650505050505050565b61370e80620008cb83390190565b8280548282559060005260206000209081019282156200041f579160200282015b828111156200041f57825182546001600160a01b0319166001600160a01b03909116178255602090920191600190910190620003e8565b506200042d92915062000431565b5090565b5b808211156200042d576000815560010162000432565b634e487b7160e01b600052604160045260246000fd5b604051601f8201601f1916810167ffffffffffffffff811182821017156200048a576200048a62000448565b604052919050565b600082601f830112620004a457600080fd5b813567ffffffffffffffff811115620004c157620004c162000448565b620004d6601f8201601f19166020016200045e565b818152846020838601011115620004ec57600080fd5b816020850160208301376000918101602001919091529392505050565b600067ffffffffffffffff82111562000526576200052662000448565b5060051b60200190565b600082601f8301126200054257600080fd5b813560206200055b620005558362000509565b6200045e565b82815260059290921b840181019181810190868411156200057b57600080fd5b8286015b84811015620005af5780356001600160a01b0381168114620005a15760008081fd5b83529183019183016200057f565b509695505050505050565b600082601f830112620005cc57600080fd5b81356020620005df620005558362000509565b82815260059290921b84018101918181019086841115620005ff57600080fd5b8286015b84811015620005af57803567ffffffffffffffff811115620006255760008081fd5b620006358986838b010162000492565b84525091830191830162000603565b60008060008060008060c087890312156200065e57600080fd5b863567ffffffffffffffff808211156200067757600080fd5b620006858a838b0162000492565b975060208901359150808211156200069c57600080fd5b620006aa8a838b0162000492565b96506040890135915080821115620006c157600080fd5b620006cf8a838b0162000530565b95506060890135915080821115620006e657600080fd5b50620006f589828a01620005ba565b9350506080870135915060a087013590509295509295509295565b634e487b7160e01b600052601160045260246000fd5b600082198211156200073c576200073c62000710565b500190565b634e487b7160e01b600052603260045260246000fd5b6000600182016200076c576200076c62000710565b5060010190565b6000815180845260005b818110156200079b576020818501810151868301820152016200077d565b81811115620007ae576000602083870101525b50601f01601f19169290920160200192915050565b600081518084526020808501945080840160005b83811015620007fe5781516001600160a01b031687529582019590820190600101620007d7565b509495945050505050565b60006101008a835260208181850152620008268285018c62000773565b915083820360408501526200083c828b62000773565b915083820360608501528189518084528284019150828160051b850101838c0160005b838110156200089157601f198784030185526200087e83835162000773565b948601949250908501906001016200085f565b50508681036080880152620008a7818c620007c3565b60a088019a909a525050505060c08301949094525060e00152509594505050505056fe60806040523480156200001157600080fd5b506040516200370e3803806200370e83398101604081905262000034916200048b565b835183146200004257600080fd5b60098890556004829055600581905583516200006690600190602087019062000195565b508260008190555086866040516200007e90620001ff565b6200008b9291906200059a565b604051809103906000f080158015620000a8573d6000803e3d6000fd5b50600a80546001600160a01b0319166001600160a01b03929092169190911790556000546001600160401b03811115620000e657620000e662000262565b60405190808252806020026020018201604052801562000110578160200160208202803683370190505b50805162000127916003916020909101906200020d565b50600954600a546004546005546040517fa19224f6d5a2d7ca582a6a54e6c5f3d937b7f0205f5bc102f378f8bc0cd9f4d8946200017f948d948d9492936001600160a01b039092169230926001928f92909162000625565b60405180910390a15050505050505050620006e5565b828054828255906000526020600020908101928215620001ed579160200282015b82811115620001ed57825182546001600160a01b0319166001600160a01b03909116178255602090920191600190910190620001b6565b50620001fb9291506200024b565b5090565b610e97806200287783390190565b828054828255906000526020600020908101928215620001ed579160200282015b82811115620001ed5782518255916020019190600101906200022e565b5b80821115620001fb57600081556001016200024c565b634e487b7160e01b600052604160045260246000fd5b604051601f8201601f191681016001600160401b0381118282101715620002a357620002a362000262565b604052919050565b60005b83811015620002c8578181015183820152602001620002ae565b83811115620002d8576000848401525b50505050565b600082601f830112620002f057600080fd5b81516001600160401b038111156200030c576200030c62000262565b62000321601f8201601f191660200162000278565b8181528460208386010111156200033757600080fd5b6200034a826020830160208701620002ab565b949350505050565b60006001600160401b038211156200036e576200036e62000262565b5060051b60200190565b600082601f8301126200038a57600080fd5b81516020620003a36200039d8362000352565b62000278565b82815260059290921b84018101918181019086841115620003c357600080fd5b8286015b84811015620004075780516001600160401b03811115620003e85760008081fd5b620003f88986838b0101620002de565b845250918301918301620003c7565b509695505050505050565b600082601f8301126200042457600080fd5b81516020620004376200039d8362000352565b82815260059290921b840181019181810190868411156200045757600080fd5b8286015b84811015620004075780516001600160a01b03811681146200047d5760008081fd5b83529183019183016200045b565b600080600080600080600080610100898b031215620004a957600080fd5b885160208a01519098506001600160401b0380821115620004c957600080fd5b620004d78c838d01620002de565b985060408b0151915080821115620004ee57600080fd5b620004fc8c838d01620002de565b975060608b01519150808211156200051357600080fd5b620005218c838d0162000378565b965060808b01519150808211156200053857600080fd5b50620005478b828c0162000412565b94505060a0890151925060c0890151915060e089015190509295985092959890939650565b6000815180845262000586816020860160208601620002ab565b601f01601f19169290920160200192915050565b604081526000620005af60408301856200056c565b8281036020840152620005c381856200056c565b95945050505050565b600081518084526020808501808196508360051b8101915082860160005b8581101562000618578284038952620006058483516200056c565b98850198935090840190600101620005ea565b5091979650505050505050565b60006101208083526200063b8184018d6200056c565b905060208382038185015262000652828d6200056c565b604085018c90526001600160a01b038b811660608701528a8116608087015285820360a0870152895480835260008b8152848120955091928401915b81811015620006ae5785548416835260019586019592850192016200068e565b505085810360c0870152620006c4818a620005cc565b9450505050508360e0830152826101008301529a9950505050505050505050565b61218280620006f56000396000f3fe608060405234801561001057600080fd5b50600436106101585760003560e01c80636e09a4ab116100c3578063a696359f1161007c578063a696359f14610290578063aa6ca80814610298578063ba9a7a56146102ad578063c4e41b22146102b6578063d63fadf9146102be578063f8e93ef9146102d157600080fd5b80636e09a4ab1461022c578063720d1bcc1461023f5780637bb1e40b1461025257806382b2e2571461026d578063909fe883146102755780639d9892cd1461027d57600080fd5b806330e9342f1161011557806330e9342f146101cc578063335a41f9146101df578063388ea3ef146101e75780633eaa0015146101fc57806357126fde1461020457806359bf5d391461021757600080fd5b806305d973a71461015d5780631913371b1461018357806322217c851461018b57806324d6147d1461019e5780632635dd7a146101a6578063291116e7146101b9575b600080fd5b61017061016b366004611d1c565b6102e4565b6040519081526020015b60405180910390f35b600054610170565b610170610199366004611d3e565b6102f9565b600854610170565b6101706101b4366004611d6a565b610644565b6101706101c7366004611d1c565b61064f565b6101706101da366004611e34565b61065b565b600554610170565b6101fa6101f5366004611d6a565b600855565b005b600654610170565b610170610212366004611d1c565b6106ce565b61021f6106da565b60405161017a9190611ea4565b61017061023a366004611eb7565b610732565b61017061024d366004611e34565b610760565b600a546040516001600160a01b03909116815260200161017a565b61021f6107d3565b600754610170565b61017061028b366004611d3e565b6108c9565b600454610170565b6102a0610a48565b60405161017a9190611f1b565b6101706103e881565b600254610170565b6101706102cc366004611e34565b610aa9565b6101706102df366004611e34565b610bd2565b60006102f0838361105e565b90505b92915050565b60008060005467ffffffffffffffff81111561031757610317611d83565b604051908082528060200260200182016040528015610340578160200160208202803683370190505b5090508381868151811061035657610356611f68565b6020026020010181815250506000805467ffffffffffffffff81111561037e5761037e611d83565b6040519080825280602002602001820160405280156103a7578160200160208202803683370190505b508051600354919250146103ba57600080fd5b60005b600354811015610438578281815181106103d9576103d9611f68565b6020026020010151600382815481106103f4576103f4611f68565b90600052602060002001546104099190611f94565b82828151811061041b5761041b611f68565b60209081029190910101528061043081611fac565b9150506103bd565b5084845b60016104a061049b600380548060200260200160405190810160405280929190818152602001828054801561049057602002820191906000526020600020905b81548152602001906001019080831161047c575b505050505086610732565b61106a565b6104ab906001611fc5565b111561063757600061050d600380548060200260200160405190810160405280929190818152602001828054801561050257602002820191906000526020600020905b8154815260200190600101908083116104ee575b505050505085610732565b9050610529670de0b6b3a7640000678ac7230489e800006106ce565b85838151811061053b5761053b611f68565b6020026020010181815161054f9190611f94565b905250845160009086908490811061056957610569611f68565b6020026020010151905060006105cf60038054806020026020016040519081016040528092919081815260200182805480156105c457602002820191906000526020600020905b8154815260200190600101908083116105b0575b505050505087610732565b905060006105f768056bc75e2d6310000061016b6105ed878661204a565b6102128a8861204a565b905061060384826106ce565b61060d908761204a565b95508588868151811061062257610622611f68565b6020026020010181815250505050505061043c565b50925050505b9392505050565b60006102f382611086565b60006102f083836110dd565b6000805b82518110156106c45782818151811061067a5761067a611f68565b6020026020010151670de0b6b3a76400006106959190612061565b8382815181106106a7576106a7611f68565b6020908102919091010152806106bc81611fac565b91505061065f565b506102f382610aa9565b60006102f0838361111f565b6060600380548060200260200160405190810160405280929190818152602001828054801561072857602002820191906000526020600020905b815481526020019060010190808311610714575b5050505050905090565b60008061073e84610aa9565b9050600061074b84610aa9565b9050610757828261204a565b95945050505050565b6000805b82518110156107c95782818151811061077f5761077f611f68565b6020026020010151670de0b6b3a764000061079a9190612061565b8382815181106107ac576107ac611f68565b6020908102919091010152806107c181611fac565b915050610764565b506102f382610bd2565b604080516003808252608082019092526060916000919060208201848036833701905050905060005b6001548110156108c35760006001828154811061081b5761081b611f68565b6000918252602090912001546040516370a0823160e01b81523360048201526001600160a01b03909116915081906370a0823190602401602060405180830381865afa15801561086f573d6000803e3d6000fd5b505050506040513d601f19601f820116820180604052508101906108939190612080565b8383815181106108a5576108a5611f68565b602090810291909101015250806108bb81611fac565b9150506107fc565b50919050565b6000806108d78585856102f9565b90506000600186815481106108ee576108ee611f68565b6000918252602090912001546040516323b872dd60e01b81526001600160a01b03909116915081906323b872dd9061092e90339030908a90600401612099565b6020604051808303816000875af115801561094d573d6000803e3d6000fd5b505050506040513d601f19601f8201168201806040525081019061097191906120bd565b5060006001858154811061098757610987611f68565b6000918252602090912001546040516323b872dd60e01b81526001600160a01b03909116915081906323b872dd906109c790309033908890600401612099565b6020604051808303816000875af11580156109e6573d6000803e3d6000fd5b505050506040513d601f19601f82011682018060405250810190610a0a91906120bd565b508260038681548110610a1f57610a1f611f68565b906000526020600020016000828254610a38919061204a565b9091555092979650505050505050565b6060600180548060200260200160405190810160405280929190818152602001828054801561072857602002820191906000526020600020905b81546001600160a01b03168152600190910190602001808311610a82575050505050905090565b600080610ab960045460646106ce565b90506000610aca60055460646106ce565b9050600384511015610adb57600080fd5b600084600081518110610af057610af0611f68565b60200260200101519050600085600181518110610b0f57610b0f611f68565b60200260200101519050600086600281518110610b2e57610b2e611f68565b602002602001015190506000610b6b610b558488670de0b6b3a76400006101c7919061204a565b6101c7670de0b6b3a76400006102128a8261204a565b610b81856101c789670de0b6b3a764000061204a565b610b8b9190611f94565b90506000610ba5836101c788670de0b6b3a764000061204a565b610bbb836101c789670de0b6b3a764000061204a565b610bc59190611f94565b9998505050505050505050565b60008054825114610be257600080fd5b6000600254600003610dec576000805b600054811015610da05780600003610c265784600081518110610c1757610c17611f68565b60200260200101519150610c4c565b610c4982868381518110610c3c57610c3c611f68565b60200260200101516102e4565b91505b848181518110610c5e57610c5e611f68565b602002602001015160026000828254610c779190611f94565b92505081905550600060018281548110610c9357610c93611f68565b9060005260206000200160009054906101000a90046001600160a01b03169050806001600160a01b03166323b872dd3330898681518110610cd657610cd6611f68565b60200260200101516040518463ffffffff1660e01b8152600401610cfc93929190612099565b6020604051808303816000875af1158015610d1b573d6000803e3d6000fd5b505050506040513d601f19601f82011682018060405250810190610d3f91906120bd565b50858281518110610d5257610d52611f68565b602002602001015160038381548110610d6d57610d6d611f68565b906000526020600020016000828254610d869190611f94565b90915550829150610d98905081611fac565b915050610bf2565b50806006819055506000610dd0826101c7670de0b6b3a7640000600054670de0b6b3a76400006102129190612061565b60078190559050610de36103e88261204a565b92505050610fb5565b6000805b600054811015610f9b57600060018281548110610e0f57610e0f611f68565b9060005260206000200160009054906101000a90046001600160a01b03169050806001600160a01b03166323b872dd3330898681518110610e5257610e52611f68565b60200260200101516040518463ffffffff1660e01b8152600401610e7893929190612099565b6020604051808303816000875af1158015610e97573d6000803e3d6000fd5b505050506040513d601f19601f82011682018060405250810190610ebb91906120bd565b50610f07610ee4878481518110610ed457610ed4611f68565b60200260200101516002546102e4565b60038481548110610ef757610ef7611f68565b90600052602060002001546106ce565b610f119085611f94565b9350858281518110610f2557610f25611f68565b602002602001015160038381548110610f4057610f40611f68565b906000526020600020016000828254610f599190611f94565b92505081905550858281518110610f7257610f72611f68565b602002602001015183610f859190611f94565b9250508080610f9390611fac565b915050610df0565b508060026000828254610fae9190611f94565b9091555050505b600a546040516340c10f1960e01b8152336004820152602481018390526001600160a01b03909116906340c10f1990604401600060405180830381600087803b15801561100157600080fd5b505af1158015611015573d6000803e3d6000fd5b505050507ff0d3e5354092c3d89d3fee2ec7610f7f62f08471f87a413ba02185396b10c5d960095433858460405161105094939291906120df565b60405180910390a192915050565b60006102f08383611134565b6000808212156110825761107d8261211a565b6102f3565b5090565b60007812725dd1d243aba0e75fe645cc4873f9e65afe688c928e1f218211156110ca57604051636155b67d60e01b8152600481018390526024015b60405180910390fd5b6102f3670de0b6b3a764000083026111fa565b6000826000036111055781156110f45760006110fe565b670de0b6b3a76400005b90506102f3565b6102f061111a61111485611373565b8461105e565b611429565b60006102f083670de0b6b3a76400008461146f565b60008080600019848609848602925082811083820303915050670de0b6b3a764000081106111785760405163698d9a0160e11b8152600481018290526024016110c1565b600080670de0b6b3a764000086880991506706f05b59d3b1ffff82119050826000036111b65780670de0b6b3a76400008504019450505050506102f3565b620400008285030493909111909103600160ee1b02919091177faccb18165bd6fe31ae1cf318dc5b51eee0e1ba569b88cd74c1773b91fac106690201905092915050565b60008160000361120c57506000919050565b50600181600160801b81106112265760409190911b9060801c5b600160401b811061123c5760209190911b9060401c5b64010000000081106112535760109190911b9060201c5b6201000081106112685760089190911b9060101c5b610100811061127c5760049190911b9060081c5b6010811061128f5760029190911b9060041c5b6008811061129f57600182901b91505b60018284816112b0576112b0612136565b048301901c915060018284816112c8576112c8612136565b048301901c915060018284816112e0576112e0612136565b048301901c915060018284816112f8576112f8612136565b048301901c9150600182848161131057611310612136565b048301901c9150600182848161132857611328612136565b048301901c9150600182848161134057611340612136565b048301901c9150600082848161135857611358612136565b04905080831015611369578261136b565b805b949350505050565b6000670de0b6b3a76400008210156113a157604051633621413760e21b8152600481018390526024016110c1565b60006113b6670de0b6b3a7640000840461153c565b670de0b6b3a764000081029250905082811c670de0b6b3a763ffff1981016113df575050919050565b6706f05b59d3b200005b801561142157670de0b6b3a7640000828002049150671bc16d674ec800008210611419579283019260019190911c905b60011c6113e9565b505050919050565b6000680a688906bd8b000000821061145757604051634a4f26f160e01b8152600481018390526024016110c1565b670de0b6b3a7640000604083901b0461063d81611620565b60008080600019858709858702925082811083820303915050806000036114a95783828161149f5761149f612136565b049250505061063d565b8381106114d357604051631dcf306360e21b815260048101829052602481018590526044016110c1565b60008486880960026001871981018816978890046003810283188082028403028082028403028082028403028082028403028082028403029081029092039091026000889003889004909101858311909403939093029303949094049190911702949350505050565b6000600160801b821061155c57608091821c916115599082611f94565b90505b600160401b821061157a57604091821c916115779082611f94565b90505b640100000000821061159957602091821c916115969082611f94565b90505b6201000082106115b657601091821c916115b39082611f94565b90505b61010082106115d257600891821c916115cf9082611f94565b90505b601082106115ed57600491821c916115ea9082611f94565b90505b6004821061160857600291821c916116059082611f94565b90505b6002821061161b576102f3600182611f94565b919050565b600160bf1b6780000000000000008216156116445768016a09e667f3bcc9090260401c5b674000000000000000821615611663576801306fe0a31b7152df0260401c5b672000000000000000821615611682576801172b83c7d517adce0260401c5b6710000000000000008216156116a15768010b5586cf9890f62a0260401c5b6708000000000000008216156116c0576801059b0d31585743ae0260401c5b6704000000000000008216156116df57680102c9a3e778060ee70260401c5b6702000000000000008216156116fe5768010163da9fb33356d80260401c5b67010000000000000082161561171d57680100b1afa5abcbed610260401c5b668000000000000082161561173b5768010058c86da1c09ea20260401c5b6640000000000000821615611759576801002c605e2e8cec500260401c5b662000000000000082161561177757680100162f3904051fa10260401c5b6610000000000000821615611795576801000b175effdc76ba0260401c5b66080000000000008216156117b357680100058ba01fb9f96d0260401c5b66040000000000008216156117d15768010002c5cc37da94920260401c5b66020000000000008216156117ef576801000162e525ee05470260401c5b660100000000000082161561180d5768010000b17255775c040260401c5b6580000000000082161561182a576801000058b91b5bc9ae0260401c5b6540000000000082161561184757680100002c5c89d5ec6d0260401c5b652000000000008216156118645768010000162e43f4f8310260401c5b6510000000000082161561188157680100000b1721bcfc9a0260401c5b6508000000000082161561189e5768010000058b90cf1e6e0260401c5b650400000000008216156118bb576801000002c5c863b73f0260401c5b650200000000008216156118d857680100000162e430e5a20260401c5b650100000000008216156118f5576801000000b1721835510260401c5b64800000000082161561191157680100000058b90c0b490260401c5b64400000000082161561192d5768010000002c5c8601cc0260401c5b642000000000821615611949576801000000162e42fff00260401c5b6410000000008216156119655768010000000b17217fbb0260401c5b640800000000821615611981576801000000058b90bfce0260401c5b64040000000082161561199d57680100000002c5c85fe30260401c5b6402000000008216156119b95768010000000162e42ff10260401c5b6401000000008216156119d557680100000000b17217f80260401c5b63800000008216156119f05768010000000058b90bfc0260401c5b6340000000821615611a0b576801000000002c5c85fe0260401c5b6320000000821615611a2657680100000000162e42ff0260401c5b6310000000821615611a41576801000000000b17217f0260401c5b6308000000821615611a5c57680100000000058b90c00260401c5b6304000000821615611a775768010000000002c5c8600260401c5b6302000000821615611a92576801000000000162e4300260401c5b6301000000821615611aad5768010000000000b172180260401c5b62800000821615611ac7576801000000000058b90c0260401c5b62400000821615611ae157680100000000002c5c860260401c5b62200000821615611afb5768010000000000162e430260401c5b62100000821615611b1557680100000000000b17210260401c5b62080000821615611b2f5768010000000000058b910260401c5b62040000821615611b49576801000000000002c5c80260401c5b62020000821615611b6357680100000000000162e40260401c5b62010000821615611b7d576801000000000000b1720260401c5b618000821615611b9657680100000000000058b90260401c5b614000821615611baf5768010000000000002c5d0260401c5b612000821615611bc8576801000000000000162e0260401c5b611000821615611be15768010000000000000b170260401c5b610800821615611bfa576801000000000000058c0260401c5b610400821615611c1357680100000000000002c60260401c5b610200821615611c2c57680100000000000001630260401c5b610100821615611c4557680100000000000000b10260401c5b6080821615611c5d57680100000000000000590260401c5b6040821615611c75576801000000000000002c0260401c5b6020821615611c8d57680100000000000000160260401c5b6010821615611ca5576801000000000000000b0260401c5b6008821615611cbd57680100000000000000060260401c5b6004821615611cd557680100000000000000030260401c5b6002821615611ced57680100000000000000010260401c5b6001821615611d0557680100000000000000010260401c5b670de0b6b3a76400000260409190911c60bf031c90565b60008060408385031215611d2f57600080fd5b50508035926020909101359150565b600080600060608486031215611d5357600080fd5b505081359360208301359350604090920135919050565b600060208284031215611d7c57600080fd5b5035919050565b634e487b7160e01b600052604160045260246000fd5b600082601f830112611daa57600080fd5b8135602067ffffffffffffffff80831115611dc757611dc7611d83565b8260051b604051601f19603f83011681018181108482111715611dec57611dec611d83565b604052938452858101830193838101925087851115611e0a57600080fd5b83870191505b84821015611e2957813583529183019190830190611e10565b979650505050505050565b600060208284031215611e4657600080fd5b813567ffffffffffffffff811115611e5d57600080fd5b61136b84828501611d99565b600081518084526020808501945080840160005b83811015611e9957815187529582019590820190600101611e7d565b509495945050505050565b6020815260006102f06020830184611e69565b60008060408385031215611eca57600080fd5b823567ffffffffffffffff80821115611ee257600080fd5b611eee86838701611d99565b93506020850135915080821115611f0457600080fd5b50611f1185828601611d99565b9150509250929050565b6020808252825182820181905260009190848201906040850190845b81811015611f5c5783516001600160a01b031683529284019291840191600101611f37565b50909695505050505050565b634e487b7160e01b600052603260045260246000fd5b634e487b7160e01b600052601160045260246000fd5b60008219821115611fa757611fa7611f7e565b500190565b600060018201611fbe57611fbe611f7e565b5060010190565b60006001600160ff1b0381841382841380821686840486111615611feb57611feb611f7e565b600160ff1b600087128281168783058912161561200a5761200a611f7e565b6000871292508782058712848416161561202657612026611f7e565b8785058712818416161561203c5761203c611f7e565b505050929093029392505050565b60008282101561205c5761205c611f7e565b500390565b600081600019048311821515161561207b5761207b611f7e565b500290565b60006020828403121561209257600080fd5b5051919050565b6001600160a01b039384168152919092166020820152604081019190915260600190565b6000602082840312156120cf57600080fd5b8151801515811461063d57600080fd5b8481526001600160a01b038416602082015260806040820181905260009061210990830185611e69565b905082606083015295945050505050565b6000600160ff1b820161212f5761212f611f7e565b5060000390565b634e487b7160e01b600052601260045260246000fdfea26469706673582212204d971a39e24b99e396dae8cc44d0ee2f7226ec108c459bb69b629d58ecf67e6564736f6c634300080d003360806040523480156200001157600080fd5b5060405162000e9738038062000e97833981016040819052620000349162000251565b8151829082906200004d906003906020850190620000de565b50805162000063906004906020840190620000de565b505050620000806200007a6200008860201b60201c565b6200008c565b5050620002f7565b3390565b600580546001600160a01b038381166001600160a01b0319831681179093556040519116919082907f8be0079c531659141344cd1fd0a4f28419497f9722a3daafe3b4186f6b6457e090600090a35050565b828054620000ec90620002bb565b90600052602060002090601f0160209004810192826200011057600085556200015b565b82601f106200012b57805160ff19168380011785556200015b565b828001600101855582156200015b579182015b828111156200015b5782518255916020019190600101906200013e565b50620001699291506200016d565b5090565b5b808211156200016957600081556001016200016e565b634e487b7160e01b600052604160045260246000fd5b600082601f830112620001ac57600080fd5b81516001600160401b0380821115620001c957620001c962000184565b604051601f8301601f19908116603f01168101908282118183101715620001f457620001f462000184565b816040528381526020925086838588010111156200021157600080fd5b600091505b8382101562000235578582018301518183018401529082019062000216565b83821115620002475760008385830101525b9695505050505050565b600080604083850312156200026557600080fd5b82516001600160401b03808211156200027d57600080fd5b6200028b868387016200019a565b93506020850151915080821115620002a257600080fd5b50620002b1858286016200019a565b9150509250929050565b600181811c90821680620002d057607f821691505b602082108103620002f157634e487b7160e01b600052602260045260246000fd5b50919050565b610b9080620003076000396000f3fe608060405234801561001057600080fd5b50600436106100f55760003560e01c806370a0823111610097578063a457c2d711610066578063a457c2d7146101eb578063a9059cbb146101fe578063dd62ed3e14610211578063f2fde38b1461022457600080fd5b806370a0823114610197578063715018a6146101c05780638da5cb5b146101c857806395d89b41146101e357600080fd5b806323b872dd116100d357806323b872dd1461014d578063313ce56714610160578063395093511461016f57806340c10f191461018257600080fd5b806306fdde03146100fa578063095ea7b31461011857806318160ddd1461013b575b600080fd5b610102610237565b60405161010f9190610999565b60405180910390f35b61012b610126366004610a0a565b6102c9565b604051901515815260200161010f565b6002545b60405190815260200161010f565b61012b61015b366004610a34565b6102e1565b6040516012815260200161010f565b61012b61017d366004610a0a565b610305565b610195610190366004610a0a565b610327565b005b61013f6101a5366004610a70565b6001600160a01b031660009081526020819052604090205490565b610195610368565b6005546040516001600160a01b03909116815260200161010f565b61010261039e565b61012b6101f9366004610a0a565b6103ad565b61012b61020c366004610a0a565b610428565b61013f61021f366004610a92565b610436565b610195610232366004610a70565b610461565b60606003805461024690610ac5565b80601f016020809104026020016040519081016040528092919081815260200182805461027290610ac5565b80156102bf5780601f10610294576101008083540402835291602001916102bf565b820191906000526020600020905b8154815290600101906020018083116102a257829003601f168201915b5050505050905090565b6000336102d78185856104fc565b5060019392505050565b6000336102ef858285610620565b6102fa85858561069a565b506001949350505050565b6000336102d78185856103188383610436565b6103229190610aff565b6104fc565b6005546001600160a01b0316331461035a5760405162461bcd60e51b815260040161035190610b25565b60405180910390fd5b6103648282610868565b5050565b6005546001600160a01b031633146103925760405162461bcd60e51b815260040161035190610b25565b61039c6000610947565b565b60606004805461024690610ac5565b600033816103bb8286610436565b90508381101561041b5760405162461bcd60e51b815260206004820152602560248201527f45524332303a2064656372656173656420616c6c6f77616e63652062656c6f77604482015264207a65726f60d81b6064820152608401610351565b6102fa82868684036104fc565b6000336102d781858561069a565b6001600160a01b03918216600090815260016020908152604080832093909416825291909152205490565b6005546001600160a01b0316331461048b5760405162461bcd60e51b815260040161035190610b25565b6001600160a01b0381166104f05760405162461bcd60e51b815260206004820152602660248201527f4f776e61626c653a206e6577206f776e657220697320746865207a65726f206160448201526564647265737360d01b6064820152608401610351565b6104f981610947565b50565b6001600160a01b03831661055e5760405162461bcd60e51b8152602060048201526024808201527f45524332303a20617070726f76652066726f6d20746865207a65726f206164646044820152637265737360e01b6064820152608401610351565b6001600160a01b0382166105bf5760405162461bcd60e51b815260206004820152602260248201527f45524332303a20617070726f766520746f20746865207a65726f206164647265604482015261737360f01b6064820152608401610351565b6001600160a01b0383811660008181526001602090815260408083209487168084529482529182902085905590518481527f8c5be1e5ebec7d5bd14f71427d1e84f3dd0314c0f7b2291e5b200ac8c7c3b925910160405180910390a3505050565b600061062c8484610436565b9050600019811461069457818110156106875760405162461bcd60e51b815260206004820152601d60248201527f45524332303a20696e73756666696369656e7420616c6c6f77616e63650000006044820152606401610351565b61069484848484036104fc565b50505050565b6001600160a01b0383166106fe5760405162461bcd60e51b815260206004820152602560248201527f45524332303a207472616e736665722066726f6d20746865207a65726f206164604482015264647265737360d81b6064820152608401610351565b6001600160a01b0382166107605760405162461bcd60e51b815260206004820152602360248201527f45524332303a207472616e7366657220746f20746865207a65726f206164647260448201526265737360e81b6064820152608401610351565b6001600160a01b038316600090815260208190526040902054818110156107d85760405162461bcd60e51b815260206004820152602660248201527f45524332303a207472616e7366657220616d6f756e7420657863656564732062604482015265616c616e636560d01b6064820152608401610351565b6001600160a01b0380851660009081526020819052604080822085850390559185168152908120805484929061080f908490610aff565b92505081905550826001600160a01b0316846001600160a01b03167fddf252ad1be2c89b69c2b068fc378daa952ba7f163c4a11628f55a4df523b3ef8460405161085b91815260200190565b60405180910390a3610694565b6001600160a01b0382166108be5760405162461bcd60e51b815260206004820152601f60248201527f45524332303a206d696e7420746f20746865207a65726f2061646472657373006044820152606401610351565b80600260008282546108d09190610aff565b90915550506001600160a01b038216600090815260208190526040812080548392906108fd908490610aff565b90915550506040518181526001600160a01b038316906000907fddf252ad1be2c89b69c2b068fc378daa952ba7f163c4a11628f55a4df523b3ef9060200160405180910390a35050565b600580546001600160a01b038381166001600160a01b0319831681179093556040519116919082907f8be0079c531659141344cd1fd0a4f28419497f9722a3daafe3b4186f6b6457e090600090a35050565b600060208083528351808285015260005b818110156109c6578581018301518582016040015282016109aa565b818111156109d8576000604083870101525b50601f01601f1916929092016040019392505050565b80356001600160a01b0381168114610a0557600080fd5b919050565b60008060408385031215610a1d57600080fd5b610a26836109ee565b946020939093013593505050565b600080600060608486031215610a4957600080fd5b610a52846109ee565b9250610a60602085016109ee565b9150604084013590509250925092565b600060208284031215610a8257600080fd5b610a8b826109ee565b9392505050565b60008060408385031215610aa557600080fd5b610aae836109ee565b9150610abc602084016109ee565b90509250929050565b600181811c90821680610ad957607f821691505b602082108103610af957634e487b7160e01b600052602260045260246000fd5b50919050565b60008219821115610b2057634e487b7160e01b600052601160045260246000fd5b500190565b6020808252818101527f4f776e61626c653a2063616c6c6572206973206e6f7420746865206f776e657260408201526060019056fea264697066735822122055f3983654408a2bd1a309bf54b74b19d114c72581f0d74c34491a31c01b4ad564736f6c634300080d0033a2646970667358221220e1ad85479f41f3358162118743eacccab043be8e6286faf2db868af027d9543664736f6c634300080d0033",
    "linkReferences": {}
  }
}