{
  "abi": [
    {
      "inputs": [
        {
          "internalType": "uint256",
          "name": "_id",
          "type": "uint256"
        },
        {
          "internalType": "string",
          "name": "poolName",
          "type": "string"
        },
        {
          "internalType": "string",
          "name": "poolTicker",
          "type": "string"
        },
        {
          "internalType": "string[]",
          "name": "tokenNames",
          "type": "string[]"
        },
        {
          "internalType": "address[]",
          "name": "tokens_",
          "type": "address[]"
        },
        {
          "internalType": "uint256",
          "name": "total_token_num_",
          "type": "uint256"
        },
        {
          "internalType": "uint256",
          "name": "sigma_",
          "type": "uint256"
        },
        {
          "internalType": "uint256",
          "name": "eta_",
          "type": "uint256"
        }
      ],
      "stateMutability": "nonpayable",
      "type": "constructor"
    },
    {
      "inputs": [
        {
          "internalType": "uint256",
          "name": "x",
          "type": "uint256"
        }
      ],
      "name": "PRBMathUD60x18__Exp2InputTooBig",
      "type": "error"
    },
    {
      "inputs": [
        {
          "internalType": "uint256",
          "name": "x",
          "type": "uint256"
        }
      ],
      "name": "PRBMathUD60x18__LogInputTooSmall",
      "type": "error"
    },
    {
      "inputs": [
        {
          "internalType": "uint256",
          "name": "x",
          "type": "uint256"
        }
      ],
      "name": "PRBMathUD60x18__SqrtOverflow",
      "type": "error"
    },
    {
      "inputs": [
        {
          "internalType": "uint256",
          "name": "prod1",
          "type": "uint256"
        }
      ],
      "name": "PRBMath__MulDivFixedPointOverflow",
      "type": "error"
    },
    {
      "inputs": [
        {
          "internalType": "uint256",
          "name": "prod1",
          "type": "uint256"
        },
        {
          "internalType": "uint256",
          "name": "denominator",
          "type": "uint256"
        }
      ],
      "name": "PRBMath__MulDivOverflow",
      "type": "error"
    },
    {
      "anonymous": false,
      "inputs": [
        {
          "indexed": false,
          "internalType": "uint256",
          "name": "id",
          "type": "uint256"
        },
        {
          "indexed": false,
          "internalType": "address",
          "name": "user",
          "type": "address"
        },
        {
          "indexed": false,
          "internalType": "uint256[]",
          "name": "amountsArr",
          "type": "uint256[]"
        },
        {
          "indexed": false,
          "internalType": "uint256",
          "name": "LPGiven",
          "type": "uint256"
        }
      ],
      "name": "addedLiquidityEvent",
      "type": "event"
    },
    {
      "anonymous": false,
      "inputs": [
        {
          "indexed": false,
          "internalType": "string",
          "name": "poolName",
          "type": "string"
        },
        {
          "indexed": false,
          "internalType": "string",
          "name": "poolTicker",
          "type": "string"
        },
        {
          "indexed": false,
          "internalType": "uint256",
          "name": "poolId",
          "type": "uint256"
        },
        {
          "indexed": false,
          "internalType": "address",
          "name": "LPTokenAddr",
          "type": "address"
        },
        {
          "indexed": false,
          "internalType": "address",
          "name": "poolAddress",
          "type": "address"
        },
        {
          "indexed": false,
          "internalType": "address[]",
          "name": "tokenAddresses",
          "type": "address[]"
        },
        {
          "indexed": false,
          "internalType": "string[]",
          "name": "tokenNames",
          "type": "string[]"
        },
        {
          "indexed": false,
          "internalType": "uint256",
          "name": "sigma",
          "type": "uint256"
        },
        {
          "indexed": false,
          "internalType": "uint256",
          "name": "eta",
          "type": "uint256"
        }
      ],
      "name": "newPoolEvent",
      "type": "event"
    },
    {
      "inputs": [],
      "name": "MINIMUM_LIQUIDITY",
      "outputs": [
        {
          "internalType": "uint256",
          "name": "",
          "type": "uint256"
        }
      ],
      "stateMutability": "view",
      "type": "function"
    },
    {
      "inputs": [
        {
          "internalType": "uint256[]",
          "name": "assetArr",
          "type": "uint256[]"
        }
      ],
      "name": "Ufun",
      "outputs": [
        {
          "internalType": "uint256",
          "name": "",
          "type": "uint256"
        }
      ],
      "stateMutability": "view",
      "type": "function"
    },
    {
      "inputs": [
        {
          "internalType": "uint256[]",
          "name": "arr",
          "type": "uint256[]"
        }
      ],
      "name": "UfunTest",
      "outputs": [
        {
          "internalType": "uint256",
          "name": "",
          "type": "uint256"
        }
      ],
      "stateMutability": "view",
      "type": "function"
    },
    {
      "inputs": [
        {
          "internalType": "uint256",
          "name": "indexOfTokenGiven",
          "type": "uint256"
        },
        {
          "internalType": "uint256",
          "name": "amountOfTokenGiven",
          "type": "uint256"
        },
        {
          "internalType": "uint256",
          "name": "indexOfTargetToken",
          "type": "uint256"
        }
      ],
      "name": "calcTokensToRelease",
      "outputs": [
        {
          "internalType": "uint256",
          "name": "",
          "type": "uint256"
        }
      ],
      "stateMutability": "view",
      "type": "function"
    },
    {
      "inputs": [
        {
          "internalType": "uint256[]",
          "name": "reserveArr",
          "type": "uint256[]"
        },
        {
          "internalType": "uint256[]",
          "name": "changeInReserveArr",
          "type": "uint256[]"
        }
      ],
      "name": "diff",
      "outputs": [
        {
          "internalType": "uint256",
          "name": "",
          "type": "uint256"
        }
      ],
      "stateMutability": "view",
      "type": "function"
    },
    {
      "inputs": [],
      "name": "getAmountProduct",
      "outputs": [
        {
          "internalType": "uint256",
          "name": "",
          "type": "uint256"
        }
      ],
      "stateMutability": "view",
      "type": "function"
    },
    {
      "inputs": [],
      "name": "getEta",
      "outputs": [
        {
          "internalType": "uint256",
          "name": "",
          "type": "uint256"
        }
      ],
      "stateMutability": "view",
      "type": "function"
    },
    {
      "inputs": [],
      "name": "getLPTokenAddr",
      "outputs": [
        {
          "internalType": "address",
          "name": "",
          "type": "address"
        }
      ],
      "stateMutability": "view",
      "type": "function"
    },
    {
      "inputs": [],
      "name": "getReserve",
      "outputs": [
        {
          "internalType": "uint256[]",
          "name": "",
          "type": "uint256[]"
        }
      ],
      "stateMutability": "view",
      "type": "function"
    },
    {
      "inputs": [],
      "name": "getRootedAmount",
      "outputs": [
        {
          "internalType": "uint256",
          "name": "",
          "type": "uint256"
        }
      ],
      "stateMutability": "view",
      "type": "function"
    },
    {
      "inputs": [],
      "name": "getSigma",
      "outputs": [
        {
          "internalType": "uint256",
          "name": "",
          "type": "uint256"
        }
      ],
      "stateMutability": "view",
      "type": "function"
    },
    {
      "inputs": [],
      "name": "getTokenBalance",
      "outputs": [
        {
          "internalType": "uint256[]",
          "name": "",
          "type": "uint256[]"
        }
      ],
      "stateMutability": "view",
      "type": "function"
    },
    {
      "inputs": [],
      "name": "getTokens",
      "outputs": [
        {
          "internalType": "address[]",
          "name": "",
          "type": "address[]"
        }
      ],
      "stateMutability": "view",
      "type": "function"
    },
    {
      "inputs": [],
      "name": "getTotalSupply",
      "outputs": [
        {
          "internalType": "uint256",
          "name": "",
          "type": "uint256"
        }
      ],
      "stateMutability": "view",
      "type": "function"
    },
    {
      "inputs": [],
      "name": "getTotalTokenNums",
      "outputs": [
        {
          "internalType": "uint256",
          "name": "",
          "type": "uint256"
        }
      ],
      "stateMutability": "view",
      "type": "function"
    },
    {
      "inputs": [],
      "name": "getU",
      "outputs": [
        {
          "internalType": "uint256",
          "name": "",
          "type": "uint256"
        }
      ],
      "stateMutability": "view",
      "type": "function"
    },
    {
      "inputs": [
        {
          "internalType": "uint256[]",
          "name": "amounts",
          "type": "uint256[]"
        }
      ],
      "name": "mint",
      "outputs": [
        {
          "internalType": "uint256",
          "name": "",
          "type": "uint256"
        }
      ],
      "stateMutability": "nonpayable",
      "type": "function"
    },
    {
      "inputs": [
        {
          "internalType": "uint256[]",
          "name": "arr",
          "type": "uint256[]"
        }
      ],
      "name": "mintTest",
      "outputs": [
        {
          "internalType": "uint256",
          "name": "",
          "type": "uint256"
        }
      ],
      "stateMutability": "nonpayable",
      "type": "function"
    },
    {
      "inputs": [
        {
          "internalType": "uint256",
          "name": "U",
          "type": "uint256"
        }
      ],
      "name": "setU",
      "outputs": [],
      "stateMutability": "nonpayable",
      "type": "function"
    },
    {
      "inputs": [
        {
          "internalType": "uint256",
          "name": "indexOfTokenGiven",
          "type": "uint256"
        },
        {
          "internalType": "uint256",
          "name": "amountOfTokenGiven",
          "type": "uint256"
        },
        {
          "internalType": "uint256",
          "name": "indexOfTargetToken",
          "type": "uint256"
        }
      ],
      "name": "swap",
      "outputs": [
        {
          "internalType": "uint256",
          "name": "",
          "type": "uint256"
        }
      ],
      "stateMutability": "nonpayable",
      "type": "function"
    },
    {
      "inputs": [
        {
          "internalType": "uint256",
          "name": "x",
          "type": "uint256"
        },
        {
          "internalType": "uint256",
          "name": "y",
          "type": "uint256"
        }
      ],
      "name": "unsignedDiv",
      "outputs": [
        {
          "internalType": "uint256",
          "name": "result",
          "type": "uint256"
        }
      ],
      "stateMutability": "pure",
      "type": "function"
    },
    {
      "inputs": [
        {
          "internalType": "uint256",
          "name": "x",
          "type": "uint256"
        },
        {
          "internalType": "uint256",
          "name": "y",
          "type": "uint256"
        }
      ],
      "name": "unsignedMul",
      "outputs": [
        {
          "internalType": "uint256",
          "name": "result",
          "type": "uint256"
        }
      ],
      "stateMutability": "pure",
      "type": "function"
    },
    {
      "inputs": [
        {
          "internalType": "uint256",
          "name": "x",
          "type": "uint256"
        },
        {
          "internalType": "uint256",
          "name": "y",
          "type": "uint256"
        }
      ],
      "name": "unsignedPow",
      "outputs": [
        {
          "internalType": "uint256",
          "name": "result",
          "type": "uint256"
        }
      ],
      "stateMutability": "pure",
      "type": "function"
    },
    {
      "inputs": [
        {
          "internalType": "uint256",
          "name": "x",
          "type": "uint256"
        }
      ],
      "name": "unsignedSqrt",
      "outputs": [
        {
          "internalType": "uint256",
          "name": "result",
          "type": "uint256"
        }
      ],
      "stateMutability": "pure",
      "type": "function"
    }
  ],
  "bytecode": {
    "object": "0x60806040523480156200001157600080fd5b506040516200375b3803806200375b833981016040819052620000349162000486565b826003146200004257600080fd5b6004829055600581905583516200006190600190602087019062000190565b508260008190555086866040516200007990620001fa565b6200008692919062000595565b604051809103906000f080158015620000a3573d6000803e3d6000fd5b50600a80546001600160a01b0319166001600160a01b03929092169190911790556000546001600160401b03811115620000e157620000e16200025d565b6040519080825280602002602001820160405280156200010b578160200160208202803683370190505b508051620001229160039160209091019062000208565b506009889055600a546004546005546040517fa19224f6d5a2d7ca582a6a54e6c5f3d937b7f0205f5bc102f378f8bc0cd9f4d8936200017a938c938c938f936001600160a01b03169230926001928f92919062000620565b60405180910390a15050505050505050620006e0565b828054828255906000526020600020908101928215620001e8579160200282015b82811115620001e857825182546001600160a01b0319166001600160a01b03909116178255602090920191600190910190620001b1565b50620001f692915062000246565b5090565b610e9780620028c483390190565b828054828255906000526020600020908101928215620001e8579160200282015b82811115620001e857825182559160200191906001019062000229565b5b80821115620001f6576000815560010162000247565b634e487b7160e01b600052604160045260246000fd5b604051601f8201601f191681016001600160401b03811182821017156200029e576200029e6200025d565b604052919050565b60005b83811015620002c3578181015183820152602001620002a9565b83811115620002d3576000848401525b50505050565b600082601f830112620002eb57600080fd5b81516001600160401b038111156200030757620003076200025d565b6200031c601f8201601f191660200162000273565b8181528460208386010111156200033257600080fd5b62000345826020830160208701620002a6565b949350505050565b60006001600160401b038211156200036957620003696200025d565b5060051b60200190565b600082601f8301126200038557600080fd5b815160206200039e62000398836200034d565b62000273565b82815260059290921b84018101918181019086841115620003be57600080fd5b8286015b84811015620004025780516001600160401b03811115620003e35760008081fd5b620003f38986838b0101620002d9565b845250918301918301620003c2565b509695505050505050565b600082601f8301126200041f57600080fd5b815160206200043262000398836200034d565b82815260059290921b840181019181810190868411156200045257600080fd5b8286015b84811015620004025780516001600160a01b0381168114620004785760008081fd5b835291830191830162000456565b600080600080600080600080610100898b031215620004a457600080fd5b885160208a01519098506001600160401b0380821115620004c457600080fd5b620004d28c838d01620002d9565b985060408b0151915080821115620004e957600080fd5b620004f78c838d01620002d9565b975060608b01519150808211156200050e57600080fd5b6200051c8c838d0162000373565b965060808b01519150808211156200053357600080fd5b50620005428b828c016200040d565b94505060a0890151925060c0890151915060e089015190509295985092959890939650565b6000815180845262000581816020860160208601620002a6565b601f01601f19169290920160200192915050565b604081526000620005aa604083018562000567565b8281036020840152620005be818562000567565b95945050505050565b600081518084526020808501808196508360051b8101915082860160005b85811015620006135782840389526200060084835162000567565b98850198935090840190600101620005e5565b5091979650505050505050565b6000610120808352620006368184018d62000567565b90506020838203818501526200064d828d62000567565b604085018c90526001600160a01b038b811660608701528a8116608087015285820360a0870152895480835260008b8152848120955091928401915b81811015620006a957855484168352600195860195928501920162000689565b505085810360c0870152620006bf818a620005c7565b9450505050508360e0830152826101008301529a9950505050505050505050565b6121d480620006f06000396000f3fe608060405234801561001057600080fd5b50600436106101585760003560e01c80636e09a4ab116100c3578063a696359f1161007c578063a696359f14610290578063aa6ca80814610298578063ba9a7a56146102ad578063c4e41b22146102b6578063d63fadf9146102be578063f8e93ef9146102d157600080fd5b80636e09a4ab1461022c578063720d1bcc1461023f5780637bb1e40b1461025257806382b2e2571461026d578063909fe883146102755780639d9892cd1461027d57600080fd5b806330e9342f1161011557806330e9342f146101cc578063335a41f9146101df578063388ea3ef146101e75780633eaa0015146101fc57806357126fde1461020457806359bf5d391461021757600080fd5b806305d973a71461015d5780631913371b1461018357806322217c851461018b57806324d6147d1461019e5780632635dd7a146101a6578063291116e7146101b9575b600080fd5b61017061016b366004611d92565b6102e4565b6040519081526020015b60405180910390f35b600054610170565b610170610199366004611db4565b6102f9565b600854610170565b6101706101b4366004611de0565b610644565b6101706101c7366004611d92565b61064f565b6101706101da366004611eaa565b61065b565b600554610170565b6101fa6101f5366004611de0565b600855565b005b600654610170565b610170610212366004611d92565b6106ce565b61021f6106da565b60405161017a9190611f1a565b61017061023a366004611f2d565b610732565b61017061024d366004611eaa565b610760565b600a546040516001600160a01b03909116815260200161017a565b61021f6107d3565b600754610170565b61017061028b366004611db4565b6108c9565b600454610170565b6102a0610a8a565b60405161017a9190611f91565b6101706103e881565b600254610170565b6101706102cc366004611eaa565b610aeb565b6101706102df366004611eaa565b610c14565b60006102f083836110d4565b90505b92915050565b60008060005467ffffffffffffffff81111561031757610317611df9565b604051908082528060200260200182016040528015610340578160200160208202803683370190505b5090508381868151811061035657610356611fde565b6020026020010181815250506000805467ffffffffffffffff81111561037e5761037e611df9565b6040519080825280602002602001820160405280156103a7578160200160208202803683370190505b508051600354919250146103ba57600080fd5b60005b600354811015610438578281815181106103d9576103d9611fde565b6020026020010151600382815481106103f4576103f4611fde565b9060005260206000200154610409919061200a565b82828151811061041b5761041b611fde565b60209081029190910101528061043081612022565b9150506103bd565b5084845b60016104a061049b600380548060200260200160405190810160405280929190818152602001828054801561049057602002820191906000526020600020905b81548152602001906001019080831161047c575b505050505086610732565b6110e0565b6104ab90600161203b565b111561063757600061050d600380548060200260200160405190810160405280929190818152602001828054801561050257602002820191906000526020600020905b8154815260200190600101908083116104ee575b505050505085610732565b9050610529670de0b6b3a7640000678ac7230489e800006106ce565b85838151811061053b5761053b611fde565b6020026020010181815161054f919061200a565b905250845160009086908490811061056957610569611fde565b6020026020010151905060006105cf60038054806020026020016040519081016040528092919081815260200182805480156105c457602002820191906000526020600020905b8154815260200190600101908083116105b0575b505050505087610732565b905060006105f768056bc75e2d6310000061016b6105ed87866120c0565b6102128a886120c0565b905061060384826106ce565b61060d90876120c0565b95508588868151811061062257610622611fde565b6020026020010181815250505050505061043c565b50925050505b9392505050565b60006102f3826110fc565b60006102f08383611153565b6000805b82518110156106c45782818151811061067a5761067a611fde565b6020026020010151670de0b6b3a764000061069591906120d7565b8382815181106106a7576106a7611fde565b6020908102919091010152806106bc81612022565b91505061065f565b506102f382610aeb565b60006102f08383611195565b6060600380548060200260200160405190810160405280929190818152602001828054801561072857602002820191906000526020600020905b815481526020019060010190808311610714575b5050505050905090565b60008061073e84610aeb565b9050600061074b84610aeb565b905061075782826120c0565b95945050505050565b6000805b82518110156107c95782818151811061077f5761077f611fde565b6020026020010151670de0b6b3a764000061079a91906120d7565b8382815181106107ac576107ac611fde565b6020908102919091010152806107c181612022565b915050610764565b506102f382610c14565b604080516003808252608082019092526060916000919060208201848036833701905050905060005b6001548110156108c35760006001828154811061081b5761081b611fde565b6000918252602090912001546040516370a0823160e01b81523360048201526001600160a01b03909116915081906370a0823190602401602060405180830381865afa15801561086f573d6000803e3d6000fd5b505050506040513d601f19601f8201168201806040525081019061089391906120f6565b8383815181106108a5576108a5611fde565b602090810291909101015250806108bb81612022565b9150506107fc565b50919050565b6000806108d78585856102f9565b90506000600186815481106108ee576108ee611fde565b6000918252602090912001546001600160a01b03169050806323b872dd333061091f89670de0b6b3a76400006120d7565b6040516001600160e01b031960e086901b1681526001600160a01b03938416600482015292909116602483015260448201526064016020604051808303816000875af1158015610973573d6000803e3d6000fd5b505050506040513d601f19601f82011682018060405250810190610997919061210f565b506000600185815481106109ad576109ad611fde565b6000918252602090912001546001600160a01b031690508063a9059cbb336109dd86670de0b6b3a76400006120d7565b6040516001600160e01b031960e085901b1681526001600160a01b03909216600483015260248201526044016020604051808303816000875af1158015610a28573d6000803e3d6000fd5b505050506040513d601f19601f82011682018060405250810190610a4c919061210f565b508260038681548110610a6157610a61611fde565b906000526020600020016000828254610a7a91906120c0565b9091555092979650505050505050565b6060600180548060200260200160405190810160405280929190818152602001828054801561072857602002820191906000526020600020905b81546001600160a01b03168152600190910190602001808311610ac4575050505050905090565b600080610afb60045460646106ce565b90506000610b0c60055460646106ce565b9050600384511015610b1d57600080fd5b600084600081518110610b3257610b32611fde565b60200260200101519050600085600181518110610b5157610b51611fde565b60200260200101519050600086600281518110610b7057610b70611fde565b602002602001015190506000610bad610b978488670de0b6b3a76400006101c791906120c0565b6101c7670de0b6b3a76400006102128a826120c0565b610bc3856101c789670de0b6b3a76400006120c0565b610bcd919061200a565b90506000610be7836101c788670de0b6b3a76400006120c0565b610bfd836101c789670de0b6b3a76400006120c0565b610c07919061200a565b9998505050505050505050565b60008054825114610c2457600080fd5b6000600254600003610e48576000805b600054811015610dfc5780600003610c685784600081518110610c5957610c59611fde565b60200260200101519150610c8e565b610c8b82868381518110610c7e57610c7e611fde565b60200260200101516102e4565b91505b848181518110610ca057610ca0611fde565b602002602001015160026000828254610cb9919061200a565b92505081905550600060018281548110610cd557610cd5611fde565b9060005260206000200160009054906101000a90046001600160a01b03169050806001600160a01b03166323b872dd3330898681518110610d1857610d18611fde565b60209081029190910101516040516001600160e01b031960e086901b1681526001600160a01b03938416600482015292909116602483015260448201526064016020604051808303816000875af1158015610d77573d6000803e3d6000fd5b505050506040513d601f19601f82011682018060405250810190610d9b919061210f565b50858281518110610dae57610dae611fde565b602002602001015160038381548110610dc957610dc9611fde565b906000526020600020016000828254610de2919061200a565b90915550829150610df4905081612022565b915050610c34565b50806006819055506000610e2c826101c7670de0b6b3a7640000600054670de0b6b3a764000061021291906120d7565b60078190559050610e3f6103e8826120c0565b9250505061102b565b6000805b60005481101561101157600060018281548110610e6b57610e6b611fde565b9060005260206000200160009054906101000a90046001600160a01b03169050806001600160a01b03166323b872dd3330898681518110610eae57610eae611fde565b60209081029190910101516040516001600160e01b031960e086901b1681526001600160a01b03938416600482015292909116602483015260448201526064016020604051808303816000875af1158015610f0d573d6000803e3d6000fd5b505050506040513d601f19601f82011682018060405250810190610f31919061210f565b50610f7d610f5a878481518110610f4a57610f4a611fde565b60200260200101516002546102e4565b60038481548110610f6d57610f6d611fde565b90600052602060002001546106ce565b610f87908561200a565b9350858281518110610f9b57610f9b611fde565b602002602001015160038381548110610fb657610fb6611fde565b906000526020600020016000828254610fcf919061200a565b92505081905550858281518110610fe857610fe8611fde565b602002602001015183610ffb919061200a565b925050808061100990612022565b915050610e4c565b508060026000828254611024919061200a565b9091555050505b600a546040516340c10f1960e01b8152336004820152602481018390526001600160a01b03909116906340c10f1990604401600060405180830381600087803b15801561107757600080fd5b505af115801561108b573d6000803e3d6000fd5b505050507ff0d3e5354092c3d89d3fee2ec7610f7f62f08471f87a413ba02185396b10c5d96009543385846040516110c69493929190612131565b60405180910390a192915050565b60006102f083836111aa565b6000808212156110f8576110f38261216c565b6102f3565b5090565b60007812725dd1d243aba0e75fe645cc4873f9e65afe688c928e1f2182111561114057604051636155b67d60e01b8152600481018390526024015b60405180910390fd5b6102f3670de0b6b3a76400008302611270565b60008260000361117b57811561116a576000611174565b670de0b6b3a76400005b90506102f3565b6102f061119061118a856113e9565b846110d4565b61149f565b60006102f083670de0b6b3a7640000846114e5565b60008080600019848609848602925082811083820303915050670de0b6b3a764000081106111ee5760405163698d9a0160e11b815260048101829052602401611137565b600080670de0b6b3a764000086880991506706f05b59d3b1ffff821190508260000361122c5780670de0b6b3a76400008504019450505050506102f3565b620400008285030493909111909103600160ee1b02919091177faccb18165bd6fe31ae1cf318dc5b51eee0e1ba569b88cd74c1773b91fac106690201905092915050565b60008160000361128257506000919050565b50600181600160801b811061129c5760409190911b9060801c5b600160401b81106112b25760209190911b9060401c5b64010000000081106112c95760109190911b9060201c5b6201000081106112de5760089190911b9060101c5b61010081106112f25760049190911b9060081c5b601081106113055760029190911b9060041c5b6008811061131557600182901b91505b600182848161132657611326612188565b048301901c9150600182848161133e5761133e612188565b048301901c9150600182848161135657611356612188565b048301901c9150600182848161136e5761136e612188565b048301901c9150600182848161138657611386612188565b048301901c9150600182848161139e5761139e612188565b048301901c915060018284816113b6576113b6612188565b048301901c915060008284816113ce576113ce612188565b049050808310156113df57826113e1565b805b949350505050565b6000670de0b6b3a764000082101561141757604051633621413760e21b815260048101839052602401611137565b600061142c670de0b6b3a764000084046115b2565b670de0b6b3a764000081029250905082811c670de0b6b3a763ffff198101611455575050919050565b6706f05b59d3b200005b801561149757670de0b6b3a7640000828002049150671bc16d674ec80000821061148f579283019260019190911c905b60011c61145f565b505050919050565b6000680a688906bd8b00000082106114cd57604051634a4f26f160e01b815260048101839052602401611137565b670de0b6b3a7640000604083901b0461063d81611696565b600080806000198587098587029250828110838203039150508060000361151f5783828161151557611515612188565b049250505061063d565b83811061154957604051631dcf306360e21b81526004810182905260248101859052604401611137565b60008486880960026001871981018816978890046003810283188082028403028082028403028082028403028082028403028082028403029081029092039091026000889003889004909101858311909403939093029303949094049190911702949350505050565b6000600160801b82106115d257608091821c916115cf908261200a565b90505b600160401b82106115f057604091821c916115ed908261200a565b90505b640100000000821061160f57602091821c9161160c908261200a565b90505b62010000821061162c57601091821c91611629908261200a565b90505b610100821061164857600891821c91611645908261200a565b90505b6010821061166357600491821c91611660908261200a565b90505b6004821061167e57600291821c9161167b908261200a565b90505b60028210611691576102f360018261200a565b919050565b600160bf1b6780000000000000008216156116ba5768016a09e667f3bcc9090260401c5b6740000000000000008216156116d9576801306fe0a31b7152df0260401c5b6720000000000000008216156116f8576801172b83c7d517adce0260401c5b6710000000000000008216156117175768010b5586cf9890f62a0260401c5b670800000000000000821615611736576801059b0d31585743ae0260401c5b67040000000000000082161561175557680102c9a3e778060ee70260401c5b6702000000000000008216156117745768010163da9fb33356d80260401c5b67010000000000000082161561179357680100b1afa5abcbed610260401c5b66800000000000008216156117b15768010058c86da1c09ea20260401c5b66400000000000008216156117cf576801002c605e2e8cec500260401c5b66200000000000008216156117ed57680100162f3904051fa10260401c5b661000000000000082161561180b576801000b175effdc76ba0260401c5b660800000000000082161561182957680100058ba01fb9f96d0260401c5b66040000000000008216156118475768010002c5cc37da94920260401c5b6602000000000000821615611865576801000162e525ee05470260401c5b66010000000000008216156118835768010000b17255775c040260401c5b658000000000008216156118a0576801000058b91b5bc9ae0260401c5b654000000000008216156118bd57680100002c5c89d5ec6d0260401c5b652000000000008216156118da5768010000162e43f4f8310260401c5b651000000000008216156118f757680100000b1721bcfc9a0260401c5b650800000000008216156119145768010000058b90cf1e6e0260401c5b65040000000000821615611931576801000002c5c863b73f0260401c5b6502000000000082161561194e57680100000162e430e5a20260401c5b6501000000000082161561196b576801000000b1721835510260401c5b64800000000082161561198757680100000058b90c0b490260401c5b6440000000008216156119a35768010000002c5c8601cc0260401c5b6420000000008216156119bf576801000000162e42fff00260401c5b6410000000008216156119db5768010000000b17217fbb0260401c5b6408000000008216156119f7576801000000058b90bfce0260401c5b640400000000821615611a1357680100000002c5c85fe30260401c5b640200000000821615611a2f5768010000000162e42ff10260401c5b640100000000821615611a4b57680100000000b17217f80260401c5b6380000000821615611a665768010000000058b90bfc0260401c5b6340000000821615611a81576801000000002c5c85fe0260401c5b6320000000821615611a9c57680100000000162e42ff0260401c5b6310000000821615611ab7576801000000000b17217f0260401c5b6308000000821615611ad257680100000000058b90c00260401c5b6304000000821615611aed5768010000000002c5c8600260401c5b6302000000821615611b08576801000000000162e4300260401c5b6301000000821615611b235768010000000000b172180260401c5b62800000821615611b3d576801000000000058b90c0260401c5b62400000821615611b5757680100000000002c5c860260401c5b62200000821615611b715768010000000000162e430260401c5b62100000821615611b8b57680100000000000b17210260401c5b62080000821615611ba55768010000000000058b910260401c5b62040000821615611bbf576801000000000002c5c80260401c5b62020000821615611bd957680100000000000162e40260401c5b62010000821615611bf3576801000000000000b1720260401c5b618000821615611c0c57680100000000000058b90260401c5b614000821615611c255768010000000000002c5d0260401c5b612000821615611c3e576801000000000000162e0260401c5b611000821615611c575768010000000000000b170260401c5b610800821615611c70576801000000000000058c0260401c5b610400821615611c8957680100000000000002c60260401c5b610200821615611ca257680100000000000001630260401c5b610100821615611cbb57680100000000000000b10260401c5b6080821615611cd357680100000000000000590260401c5b6040821615611ceb576801000000000000002c0260401c5b6020821615611d0357680100000000000000160260401c5b6010821615611d1b576801000000000000000b0260401c5b6008821615611d3357680100000000000000060260401c5b6004821615611d4b57680100000000000000030260401c5b6002821615611d6357680100000000000000010260401c5b6001821615611d7b57680100000000000000010260401c5b670de0b6b3a76400000260409190911c60bf031c90565b60008060408385031215611da557600080fd5b50508035926020909101359150565b600080600060608486031215611dc957600080fd5b505081359360208301359350604090920135919050565b600060208284031215611df257600080fd5b5035919050565b634e487b7160e01b600052604160045260246000fd5b600082601f830112611e2057600080fd5b8135602067ffffffffffffffff80831115611e3d57611e3d611df9565b8260051b604051601f19603f83011681018181108482111715611e6257611e62611df9565b604052938452858101830193838101925087851115611e8057600080fd5b83870191505b84821015611e9f57813583529183019190830190611e86565b979650505050505050565b600060208284031215611ebc57600080fd5b813567ffffffffffffffff811115611ed357600080fd5b6113e184828501611e0f565b600081518084526020808501945080840160005b83811015611f0f57815187529582019590820190600101611ef3565b509495945050505050565b6020815260006102f06020830184611edf565b60008060408385031215611f4057600080fd5b823567ffffffffffffffff80821115611f5857600080fd5b611f6486838701611e0f565b93506020850135915080821115611f7a57600080fd5b50611f8785828601611e0f565b9150509250929050565b6020808252825182820181905260009190848201906040850190845b81811015611fd25783516001600160a01b031683529284019291840191600101611fad565b50909695505050505050565b634e487b7160e01b600052603260045260246000fd5b634e487b7160e01b600052601160045260246000fd5b6000821982111561201d5761201d611ff4565b500190565b60006001820161203457612034611ff4565b5060010190565b60006001600160ff1b038184138284138082168684048611161561206157612061611ff4565b600160ff1b600087128281168783058912161561208057612080611ff4565b6000871292508782058712848416161561209c5761209c611ff4565b878505871281841616156120b2576120b2611ff4565b505050929093029392505050565b6000828210156120d2576120d2611ff4565b500390565b60008160001904831182151516156120f1576120f1611ff4565b500290565b60006020828403121561210857600080fd5b5051919050565b60006020828403121561212157600080fd5b8151801515811461063d57600080fd5b8481526001600160a01b038416602082015260806040820181905260009061215b90830185611edf565b905082606083015295945050505050565b6000600160ff1b820161218157612181611ff4565b5060000390565b634e487b7160e01b600052601260045260246000fdfea2646970667358221220f0ccb6290568a84217afdca36e69316d2cb208b0673a547b2ffc6b6b0f2b68f364736f6c634300080d003360806040523480156200001157600080fd5b5060405162000e9738038062000e97833981016040819052620000349162000251565b8151829082906200004d906003906020850190620000de565b50805162000063906004906020840190620000de565b505050620000806200007a6200008860201b60201c565b6200008c565b5050620002f7565b3390565b600580546001600160a01b038381166001600160a01b0319831681179093556040519116919082907f8be0079c531659141344cd1fd0a4f28419497f9722a3daafe3b4186f6b6457e090600090a35050565b828054620000ec90620002bb565b90600052602060002090601f0160209004810192826200011057600085556200015b565b82601f106200012b57805160ff19168380011785556200015b565b828001600101855582156200015b579182015b828111156200015b5782518255916020019190600101906200013e565b50620001699291506200016d565b5090565b5b808211156200016957600081556001016200016e565b634e487b7160e01b600052604160045260246000fd5b600082601f830112620001ac57600080fd5b81516001600160401b0380821115620001c957620001c962000184565b604051601f8301601f19908116603f01168101908282118183101715620001f457620001f462000184565b816040528381526020925086838588010111156200021157600080fd5b600091505b8382101562000235578582018301518183018401529082019062000216565b83821115620002475760008385830101525b9695505050505050565b600080604083850312156200026557600080fd5b82516001600160401b03808211156200027d57600080fd5b6200028b868387016200019a565b93506020850151915080821115620002a257600080fd5b50620002b1858286016200019a565b9150509250929050565b600181811c90821680620002d057607f821691505b602082108103620002f157634e487b7160e01b600052602260045260246000fd5b50919050565b610b9080620003076000396000f3fe608060405234801561001057600080fd5b50600436106100f55760003560e01c806370a0823111610097578063a457c2d711610066578063a457c2d7146101eb578063a9059cbb146101fe578063dd62ed3e14610211578063f2fde38b1461022457600080fd5b806370a0823114610197578063715018a6146101c05780638da5cb5b146101c857806395d89b41146101e357600080fd5b806323b872dd116100d357806323b872dd1461014d578063313ce56714610160578063395093511461016f57806340c10f191461018257600080fd5b806306fdde03146100fa578063095ea7b31461011857806318160ddd1461013b575b600080fd5b610102610237565b60405161010f9190610999565b60405180910390f35b61012b610126366004610a0a565b6102c9565b604051901515815260200161010f565b6002545b60405190815260200161010f565b61012b61015b366004610a34565b6102e1565b6040516012815260200161010f565b61012b61017d366004610a0a565b610305565b610195610190366004610a0a565b610327565b005b61013f6101a5366004610a70565b6001600160a01b031660009081526020819052604090205490565b610195610368565b6005546040516001600160a01b03909116815260200161010f565b61010261039e565b61012b6101f9366004610a0a565b6103ad565b61012b61020c366004610a0a565b610428565b61013f61021f366004610a92565b610436565b610195610232366004610a70565b610461565b60606003805461024690610ac5565b80601f016020809104026020016040519081016040528092919081815260200182805461027290610ac5565b80156102bf5780601f10610294576101008083540402835291602001916102bf565b820191906000526020600020905b8154815290600101906020018083116102a257829003601f168201915b5050505050905090565b6000336102d78185856104fc565b5060019392505050565b6000336102ef858285610620565b6102fa85858561069a565b506001949350505050565b6000336102d78185856103188383610436565b6103229190610aff565b6104fc565b6005546001600160a01b0316331461035a5760405162461bcd60e51b815260040161035190610b25565b60405180910390fd5b6103648282610868565b5050565b6005546001600160a01b031633146103925760405162461bcd60e51b815260040161035190610b25565b61039c6000610947565b565b60606004805461024690610ac5565b600033816103bb8286610436565b90508381101561041b5760405162461bcd60e51b815260206004820152602560248201527f45524332303a2064656372656173656420616c6c6f77616e63652062656c6f77604482015264207a65726f60d81b6064820152608401610351565b6102fa82868684036104fc565b6000336102d781858561069a565b6001600160a01b03918216600090815260016020908152604080832093909416825291909152205490565b6005546001600160a01b0316331461048b5760405162461bcd60e51b815260040161035190610b25565b6001600160a01b0381166104f05760405162461bcd60e51b815260206004820152602660248201527f4f776e61626c653a206e6577206f776e657220697320746865207a65726f206160448201526564647265737360d01b6064820152608401610351565b6104f981610947565b50565b6001600160a01b03831661055e5760405162461bcd60e51b8152602060048201526024808201527f45524332303a20617070726f76652066726f6d20746865207a65726f206164646044820152637265737360e01b6064820152608401610351565b6001600160a01b0382166105bf5760405162461bcd60e51b815260206004820152602260248201527f45524332303a20617070726f766520746f20746865207a65726f206164647265604482015261737360f01b6064820152608401610351565b6001600160a01b0383811660008181526001602090815260408083209487168084529482529182902085905590518481527f8c5be1e5ebec7d5bd14f71427d1e84f3dd0314c0f7b2291e5b200ac8c7c3b925910160405180910390a3505050565b600061062c8484610436565b9050600019811461069457818110156106875760405162461bcd60e51b815260206004820152601d60248201527f45524332303a20696e73756666696369656e7420616c6c6f77616e63650000006044820152606401610351565b61069484848484036104fc565b50505050565b6001600160a01b0383166106fe5760405162461bcd60e51b815260206004820152602560248201527f45524332303a207472616e736665722066726f6d20746865207a65726f206164604482015264647265737360d81b6064820152608401610351565b6001600160a01b0382166107605760405162461bcd60e51b815260206004820152602360248201527f45524332303a207472616e7366657220746f20746865207a65726f206164647260448201526265737360e81b6064820152608401610351565b6001600160a01b038316600090815260208190526040902054818110156107d85760405162461bcd60e51b815260206004820152602660248201527f45524332303a207472616e7366657220616d6f756e7420657863656564732062604482015265616c616e636560d01b6064820152608401610351565b6001600160a01b0380851660009081526020819052604080822085850390559185168152908120805484929061080f908490610aff565b92505081905550826001600160a01b0316846001600160a01b03167fddf252ad1be2c89b69c2b068fc378daa952ba7f163c4a11628f55a4df523b3ef8460405161085b91815260200190565b60405180910390a3610694565b6001600160a01b0382166108be5760405162461bcd60e51b815260206004820152601f60248201527f45524332303a206d696e7420746f20746865207a65726f2061646472657373006044820152606401610351565b80600260008282546108d09190610aff565b90915550506001600160a01b038216600090815260208190526040812080548392906108fd908490610aff565b90915550506040518181526001600160a01b038316906000907fddf252ad1be2c89b69c2b068fc378daa952ba7f163c4a11628f55a4df523b3ef9060200160405180910390a35050565b600580546001600160a01b038381166001600160a01b0319831681179093556040519116919082907f8be0079c531659141344cd1fd0a4f28419497f9722a3daafe3b4186f6b6457e090600090a35050565b600060208083528351808285015260005b818110156109c6578581018301518582016040015282016109aa565b818111156109d8576000604083870101525b50601f01601f1916929092016040019392505050565b80356001600160a01b0381168114610a0557600080fd5b919050565b60008060408385031215610a1d57600080fd5b610a26836109ee565b946020939093013593505050565b600080600060608486031215610a4957600080fd5b610a52846109ee565b9250610a60602085016109ee565b9150604084013590509250925092565b600060208284031215610a8257600080fd5b610a8b826109ee565b9392505050565b60008060408385031215610aa557600080fd5b610aae836109ee565b9150610abc602084016109ee565b90509250929050565b600181811c90821680610ad957607f821691505b602082108103610af957634e487b7160e01b600052602260045260246000fd5b50919050565b60008219821115610b2057634e487b7160e01b600052601160045260246000fd5b500190565b6020808252818101527f4f776e61626c653a2063616c6c6572206973206e6f7420746865206f776e657260408201526060019056fea264697066735822122055f3983654408a2bd1a309bf54b74b19d114c72581f0d74c34491a31c01b4ad564736f6c634300080d0033",
    "linkReferences": {}
  }
}